:0400000022EF0AF0F1
:101000000000010E2A6E2450D8B409EF08F00BEF4F
:1010100008F01BEF08F02450D96EDA6ADF30E832AE
:10102000E832070B256E070E256419EF08F01BEF59
:1010300008F072EF08F0000E2A6E92EF08F02450CC
:10104000D96EDA6ADF30E832E832070B256E010E1E
:10105000266E252A2EEF08F0D8902636252E2CEF66
:1010600008F02650FF0A276E2450D96EDA6ADF5046
:10107000070B020DF350150FD96EDA6ADECF28F098
:10108000DDCF29F028C0D9FF29C0DAFF2750DF16AD
:1010900092EF08F02450D96EDA6ADF30E832E83295
:1010A000070B256E010E266E252A59EF08F0D89001
:1010B0002636252E57EF08F02450D96EDA6ADF5015
:1010C000070B020DF350150FD96EDA6ADECF27F049
:1010D000DDCF28F027C0D9FF28C0DAFF2650DF1265
:1010E00092EF08F02450D96EDA6ADFBC7AEF08F08C
:1010F0007DEF08F0010E7EEF08F0000E256E266AE7
:101100002650000AD8B487EF08F01BEF08F02550EE
:10111000000AD8B41FEF08F0010AD8B44AEF08F06B
:101120001BEF08F02A501200010E2B6E2450D8B489
:101130009CEF08F09EEF08F0AEEF08F02450D96E57
:10114000DA6ADF30E832E832070B266E070E2664D3
:10115000ACEF08F0AEEF08F005EF09F0000E2B6ED3
:101160001AEF09F02450D96EDA6ADF30E832E8323B
:10117000070B266E010E276E262AC1EF08F0D890C5
:101180002736262EBFEF08F02750FF0A286E24507E
:10119000D96EDA6ADF50070B020DF3500B0FD96ED0
:1011A000DA6ADECF29F0DDCF2AF029C0D9FF2AC0C4
:1011B000DAFF2850DF161AEF09F02450D96EDA6AE8
:1011C000DF30E832E832070B266E010E276E262A42
:1011D000ECEF08F0D8902736262EEAEF08F02450DE
:1011E000D96EDA6ADF50070B020DF3500B0FD96E80
:1011F000DA6ADECF28F0DDCF29F028C0D9FF29C078
:10120000DAFF2750DF121AEF09F02550266E276A01
:101210002750000AD8B40FEF09F0AEEF08F02650BF
:10122000000AD8B4B2EF08F0010AD8B4DDEF08F034
:10123000AEEF08F02B5012002450D8B422EF09F082
:1012400024EF09F034EF09F02450D96EDA6ADF3068
:10125000E832E832070B256E070E256432EF09F0FD
:1012600034EF09F036EF09F05CEF09F02450D96E45
:10127000DA6ADF30E832E832070B256E010E266E9F
:10128000252A45EF09F0D8902636252E43EF09F0A0
:101290002450D96EDA6ADF50070B020DF3500B0FA2
:1012A000D96EDA6ADECF27F0DDCF28F027C0D9FF6C
:1012B00028C0DAFF2650DF1A1200010E2B6E2950CB
:1012C000D8A465EF09F067EF09F06BEF09F0000EA5
:1012D0002B6E95EF09F038C02CF02950D96EDA6AE0
:1012E000DF50070B2A6E2C502A18F80B2A182C6E88
:1012F0002950D96EDA6ADF30E832E832070B2A6EFD
:101300002A462A462A462C502A18C70B2A182C6E21
:101310002C9C2950D96EDA6ADFAC02D02C8E01D019
:101320002C9E2C0E246E1CEC09F02B501200010E8A
:10133000316E2F50D8A49FEF09F0A1EF09F0A5EF6F
:1013400009F0000E316ECFEF09F03BC032F02F50A4
:10135000D96EDA6ADF50070B306E32503018F80B56
:101360003018326E2F50D96EDA6ADF30E832E83248
:10137000070B306E30463046304632503018C70BBF
:101380003018326E329C2F50D96EDA6ADFAC02D040
:10139000328E01D0329E320E2C6ED1EC09F03150DB
:1013A00012002C50D8B4D7EF09F0D9EF09F0E9EFCB
:1013B00009F02C50D96EDA6ADF30E832E832070BD8
:1013C0002D6E070E2D64E7EF09F0E9EF09F0EBEF62
:1013D00009F0FCEF09F02CC024F001EC08F02E6EAF
:1013E0002CC024F02C50D96EDA6A000EDFBE010E3C
:1013F000256E94EC08F02E6E12003DEC0AF0230EE0
:10140000296E5DEC09F01F6E220E296E5DEC09F06D
:101410001F6E210E296E5DEC09F01F6E200E296EE5
:101420005DEC09F01F6E030E346E8A0E336E560E9D
:10143000E82EFED7332EFCD7342EFAD7FFEF09F073
:1014400000EF00F0A40EF66E140EF76E000EF86EAC
:1014500000EE01F010EE23F00900F5CFEEFFE550AD
:10146000E150FAE100EE35F0070EEE6AE806FDE124
:10147000000EF86E0001FDEF09F0230E2F6E97ECC1
:1014800009F01F6E220E2F6E97EC09F01F6E210ED1
:101490002F6E97EC09F01F6E200E2F6E97EC09F05F
:1014A0001F6E1200800F810F820F830F840F890F30
:1014B0008A0F8B0F8C0F8D0F920F930F940F950F38
:0714C000960F015A524A4247
:020000040020DA
:08000000FFFFFFFFFFFFFFFF00
:020000040030CA
:0E000000FF02091EFF8181FF0FC00FE00F40BD
:00000001FF
